{
  "transactions": [
    {
      "hash": "0xda92d446594eb5fd40f6d386ac10f97185ce42f7cc7445075427b811dedc425c",
      "transactionType": "CALL",
      "contractName": null,
      "contractAddress": "0x6d00ea71871ecf0e7e99866ff794be957c8045c2",
      "function": "mintNft(string)",
      "arguments": [
        "ipfs://bafkreic3sq7wn53aid3f2h4tvkd6ej7dcsujoo7bjsn2s2q2cfqmi4e5ni"
      ],
      "transaction": {
        "from": "0x055012be5d956e6c7bb7ce086d355889a6d76a5a",
        "to": "0x6d00ea71871ecf0e7e99866ff794be957c8045c2",
        "gas": "0x41316",
        "value": "0x0",
        "input": "0xda86f4a900000000000000000000000000000000000000000000000000000000000000200000000000000000000000000000000000000000000000000000000000000042697066733a2f2f6261666b7265696333737137776e3533616964336632683474766b6436656a37646373756a6f6f37626a736e32733271326366716d693465356e69000000000000000000000000000000000000000000000000000000000000",
        "nonce": "0x20",
        "chainId": "0xaa36a7"
      },
      "additionalContracts": [],
      "isFixedGasLimit": false
    }
  ],
  "receipts": [
    {
      "status": "0x1",
      "cumulativeGasUsed": "0x1c953e9",
      "logs": [
        {
          "address": "0x6d00ea71871ecf0e7e99866ff794be957c8045c2",
          "topics": [
            "0xddf252ad1be2c89b69c2b068fc378daa952ba7f163c4a11628f55a4df523b3ef",
            "0x0000000000000000000000000000000000000000000000000000000000000000",
            "0x000000000000000000000000055012be5d956e6c7bb7ce086d355889a6d76a5a",
            "0x0000000000000000000000000000000000000000000000000000000000000000"
          ],
          "data": "0x",
          "blockHash": "0x45584abda9cf4e4fe9d627979953daf8fa5a3de30a51a09899535fca746688ce",
          "blockNumber": "0x8b2f26",
          "blockTimestamp": "0x68b7a390",
          "transactionHash": "0xda92d446594eb5fd40f6d386ac10f97185ce42f7cc7445075427b811dedc425c",
          "transactionIndex": "0xd0",
          "logIndex": "0x120",
          "removed": false
        }
      ],
      "logsBloom": "0x00000000000000000000000000000000000000000000000000000000000000000000000000000000000000000000000000000000000000200000000000000040000000000000000000000008000000000000000000000000000000000000000000000000020000000010000000000800800000000000000000000010000000000000000000000000000000000000000000000000000000000000000000000000000000100000000000000000000000000000000000000000000000000000000000000002000000000000000000000000000000000000000000000000800020000000000000000000000000000000000000000000000000000000000000000000",
      "type": "0x2",
      "transactionHash": "0xda92d446594eb5fd40f6d386ac10f97185ce42f7cc7445075427b811dedc425c",
      "transactionIndex": "0xd0",
      "blockHash": "0x45584abda9cf4e4fe9d627979953daf8fa5a3de30a51a09899535fca746688ce",
      "blockNumber": "0x8b2f26",
      "gasUsed": "0x2c939",
      "effectiveGasPrice": "0x659b2fb",
      "from": "0x055012be5d956e6c7bb7ce086d355889a6d76a5a",
      "to": "0x6d00ea71871ecf0e7e99866ff794be957c8045c2",
      "contractAddress": null
    }
  ],
  "libraries": [],
  "pending": [],
  "returns": {},
  "timestamp": 1756865424943,
  "chain": 11155111,
  "commit": null
}