{
  "transactions": [
    {
      "hash": "0x047b35f6faced1c3909f63a10862cfac22decf3efd4b4609b425c9864dd3720f",
      "transactionType": "CALL",
      "contractName": null,
      "contractAddress": "0xeef85a9903c9c4e8137d318f894bee3002c89e4c",
      "function": "mintNft(string)",
      "arguments": [
        "ipfs://bafkreiawaebqhaobqelhrb4ub46y4wrzp7qvuxscamqxwtcyc3ihtt7wke"
      ],
      "transaction": {
        "from": "0x055012be5d956e6c7bb7ce086d355889a6d76a5a",
        "to": "0xeef85a9903c9c4e8137d318f894bee3002c89e4c",
        "gas": "0x41316",
        "value": "0x0",
        "input": "0xda86f4a900000000000000000000000000000000000000000000000000000000000000200000000000000000000000000000000000000000000000000000000000000042697066733a2f2f6261666b72656961776165627168616f6271656c6872623475623436793477727a7037717675787363616d71787774637963336968747437776b65000000000000000000000000000000000000000000000000000000000000",
        "nonce": "0x1e",
        "chainId": "0xaa36a7"
      },
      "additionalContracts": [],
      "isFixedGasLimit": false
    }
  ],
  "receipts": [
    {
      "status": "0x1",
      "cumulativeGasUsed": "0x1408cbd",
      "logs": [
        {
          "address": "0xeef85a9903c9c4e8137d318f894bee3002c89e4c",
          "topics": [
            "0xddf252ad1be2c89b69c2b068fc378daa952ba7f163c4a11628f55a4df523b3ef",
            "0x0000000000000000000000000000000000000000000000000000000000000000",
            "0x000000000000000000000000055012be5d956e6c7bb7ce086d355889a6d76a5a",
            "0x0000000000000000000000000000000000000000000000000000000000000000"
          ],
          "data": "0x",
          "blockHash": "0x4c93248d28848c325cefd0e4caebc4249e0272d3d4ca6b7d2a6055f15944f54a",
          "blockNumber": "0x8b2eb8",
          "blockTimestamp": "0x68b79e08",
          "transactionHash": "0x047b35f6faced1c3909f63a10862cfac22decf3efd4b4609b425c9864dd3720f",
          "transactionIndex": "0x60",
          "logIndex": "0x60",
          "removed": false
        }
      ],
      "logsBloom": "0x00000000000000000000008000000000000000040000000000000000000000000000000000000000000000000000000000000000000000200000000000000040000000000000000000000008000000000000000000000000000000000000000000000000020000000000000000000800800000000000000000000010000000000000000000000000000000000000000000000000000000000000000000000000000000000000000000000000000000000000000000000000000000000000000000000002000000000000000000000000000000000000000000000000000020000000000000000000000000000000000000000000800000000000000000000000",
      "type": "0x2",
      "transactionHash": "0x047b35f6faced1c3909f63a10862cfac22decf3efd4b4609b425c9864dd3720f",
      "transactionIndex": "0x60",
      "blockHash": "0x4c93248d28848c325cefd0e4caebc4249e0272d3d4ca6b7d2a6055f15944f54a",
      "blockNumber": "0x8b2eb8",
      "gasUsed": "0x2c939",
      "effectiveGasPrice": "0x109349a5",
      "from": "0x055012be5d956e6c7bb7ce086d355889a6d76a5a",
      "to": "0xeef85a9903c9c4e8137d318f894bee3002c89e4c",
      "contractAddress": null
    }
  ],
  "libraries": [],
  "pending": [],
  "returns": {},
  "timestamp": 1756864009150,
  "chain": 11155111,
  "commit": null
}